{
  "contractName": "Bonus",
  "abi": [
    {
      "constant": true,
      "inputs": [],
      "name": "totalSupply",
      "outputs": [
        {
          "name": "",
          "type": "uint256"
        }
      ],
      "payable": false,
      "stateMutability": "view",
      "type": "function"
    },
    {
      "constant": true,
      "inputs": [
        {
          "name": "_owner",
          "type": "address"
        }
      ],
      "name": "balanceOf",
      "outputs": [
        {
          "name": "",
          "type": "uint256"
        }
      ],
      "payable": false,
      "stateMutability": "view",
      "type": "function"
    },
    {
      "constant": true,
      "inputs": [],
      "name": "owner",
      "outputs": [
        {
          "name": "",
          "type": "address"
        }
      ],
      "payable": false,
      "stateMutability": "view",
      "type": "function"
    },
    {
      "constant": false,
      "inputs": [
        {
          "name": "_to",
          "type": "address"
        },
        {
          "name": "_value",
          "type": "uint256"
        }
      ],
      "name": "transfer",
      "outputs": [
        {
          "name": "",
          "type": "bool"
        }
      ],
      "payable": false,
      "stateMutability": "nonpayable",
      "type": "function"
    },
    {
      "inputs": [],
      "payable": false,
      "stateMutability": "nonpayable",
      "type": "constructor"
    },
    {
      "anonymous": false,
      "inputs": [
        {
          "indexed": true,
          "name": "from",
          "type": "address"
        },
        {
          "indexed": true,
          "name": "to",
          "type": "address"
        },
        {
          "indexed": false,
          "name": "value",
          "type": "uint256"
        }
      ],
      "name": "Transfer",
      "type": "event"
    },
    {
      "constant": false,
      "inputs": [
        {
          "name": "_cost",
          "type": "uint256"
        },
        {
          "name": "_timeToGet",
          "type": "uint256"
        }
      ],
      "name": "makeOrder",
      "outputs": [],
      "payable": false,
      "stateMutability": "nonpayable",
      "type": "function"
    },
    {
      "constant": false,
      "inputs": [
        {
          "name": "_user",
          "type": "address"
        }
      ],
      "name": "compliteOrder",
      "outputs": [],
      "payable": false,
      "stateMutability": "nonpayable",
      "type": "function"
    }
  ],
  "bytecode": "0x608060405234801561001057600080fd5b5033600081815260208181526040808320602a90819055600181905560028054600160a060020a03191686179055815190815290517fddf252ad1be2c89b69c2b068fc378daa952ba7f163c4a11628f55a4df523b3ef929181900390910190a36103828061007f6000396000f3006080604052600436106100775763ffffffff7c010000000000000000000000000000000000000000000000000000000060003504166318160ddd811461007c57806370a08231146100a35780638da5cb5b146100c45780638df41bef146100f55780639bc8010214610118578063a9059cbb14610133575b600080fd5b34801561008857600080fd5b5061009161016b565b60408051918252519081900360200190f35b3480156100af57600080fd5b50610091600160a060020a0360043516610171565b3480156100d057600080fd5b506100d961018c565b60408051600160a060020a039092168252519081900360200190f35b34801561010157600080fd5b50610116600160a060020a036004351661019b565b005b34801561012457600080fd5b506101166004356024356101f3565b34801561013f57600080fd5b50610157600160a060020a0360043516602435610250565b604080519115158252519081900360200190f35b60015490565b600160a060020a031660009081526020819052604090205490565b600254600160a060020a031681565b600254600090600160a060020a031633146101b557600080fd5b503360009081526003602052604090206001810154610707194201116101e2576101e0826001610250565b505b600201805460ff1916600117905550565b610e0f19420181101561020557600080fd5b60408051606081018252928352602080840192835260008483018181523382526003909252919091209251835590516001830155516002909101805460ff1916911515919091179055565b6000600160a060020a038316151561026757600080fd5b3360009081526020819052604090205482111561028357600080fd5b336000908152602081905260409020546102a3908363ffffffff61033116565b3360009081526020819052604080822092909255600160a060020a038516815220546102d5908363ffffffff61034316565b600160a060020a038416600081815260208181526040918290209390935580518581529051919233927fddf252ad1be2c89b69c2b068fc378daa952ba7f163c4a11628f55a4df523b3ef9281900390910190a350600192915050565b60008282111561033d57fe5b50900390565b8181018281101561035057fe5b929150505600a165627a7a723058208428a86cc0c19a4d93e41cf1b727b166214a1f39eb5765a69aa1780f66ea01ae0029",
  "source": "pragma solidity ^0.4.0;\n\nimport \"zeppelin-solidity/contracts/token/ERC20/BasicToken.sol\";\n\ncontract Bonus is BasicToken {\n\n    address public owner;\n\n    constructor() public {\n        balances[msg.sender] = 42;\n        totalSupply_ = balances[msg.sender];\n        owner = msg.sender;\n        emit Transfer(address(0), msg.sender, totalSupply_);\n    }\n    struct order {\n        uint cost;\n        uint timeToGet;\n        bool done;\n    }\n    mapping (address => order) allOrders;\n\n    function makeOrder(uint _cost, uint _timeToGet) public {\n        require(_timeToGet >= now - 1 hours);\n        // todo: сделать проверку время заказа и реальноого времени\n        allOrders[msg.sender] = order(_cost, _timeToGet, false);\n    }\n\n    function compliteOrder(address _user) public {\n        require(msg.sender==owner); //выполняется проверка что msg.sender это владелец контракта\n        order storage _order = allOrders[msg.sender]; //создаю _order в который помещаю структуру из массива allOrders по ключу msg.sender\n        if (_order.timeToGet >= (now - 30 minutes)) {\n            transfer(_user, 1);\n        }\n\n        _order.done = true; //присвоение значения true переменной done структуры order из массива allOrders по ключу msg.sender\n\n    }\n}\n",
  "sourcePath": "/home/eugene/go/src/blockchain/week_03/project/contracts/bonus.sol",
  "compiler": {
    "name": "solc",
    "version": "0.4.24+commit.e67f0147.Emscripten.clang"
  },
  "schemaVersion": "2.0.1",
  "updatedAt": "2018-07-24T15:04:55.372Z"
}