{
  "contractName": "Token_week3",
  "abi": [
    {
      "constant": false,
      "inputs": [
        {
          "name": "_spender",
          "type": "address"
        },
        {
          "name": "_value",
          "type": "uint256"
        }
      ],
      "name": "approve",
      "outputs": [
        {
          "name": "",
          "type": "bool"
        }
      ],
      "payable": false,
      "stateMutability": "nonpayable",
      "type": "function"
    },
    {
      "constant": true,
      "inputs": [],
      "name": "totalSupply",
      "outputs": [
        {
          "name": "",
          "type": "uint256"
        }
      ],
      "payable": false,
      "stateMutability": "view",
      "type": "function"
    },
    {
      "constant": false,
      "inputs": [
        {
          "name": "_spender",
          "type": "address"
        },
        {
          "name": "_subtractedValue",
          "type": "uint256"
        }
      ],
      "name": "decreaseApproval",
      "outputs": [
        {
          "name": "",
          "type": "bool"
        }
      ],
      "payable": false,
      "stateMutability": "nonpayable",
      "type": "function"
    },
    {
      "constant": true,
      "inputs": [
        {
          "name": "_owner",
          "type": "address"
        }
      ],
      "name": "balanceOf",
      "outputs": [
        {
          "name": "",
          "type": "uint256"
        }
      ],
      "payable": false,
      "stateMutability": "view",
      "type": "function"
    },
    {
      "constant": false,
      "inputs": [
        {
          "name": "_spender",
          "type": "address"
        },
        {
          "name": "_addedValue",
          "type": "uint256"
        }
      ],
      "name": "increaseApproval",
      "outputs": [
        {
          "name": "",
          "type": "bool"
        }
      ],
      "payable": false,
      "stateMutability": "nonpayable",
      "type": "function"
    },
    {
      "constant": true,
      "inputs": [
        {
          "name": "_owner",
          "type": "address"
        },
        {
          "name": "_spender",
          "type": "address"
        }
      ],
      "name": "allowance",
      "outputs": [
        {
          "name": "",
          "type": "uint256"
        }
      ],
      "payable": false,
      "stateMutability": "view",
      "type": "function"
    },
    {
      "constant": true,
      "inputs": [
        {
          "name": "",
          "type": "address"
        }
      ],
      "name": "m_freeze_info",
      "outputs": [
        {
          "name": "",
          "type": "uint256"
        }
      ],
      "payable": false,
      "stateMutability": "view",
      "type": "function"
    },
    {
      "inputs": [],
      "payable": false,
      "stateMutability": "nonpayable",
      "type": "constructor"
    },
    {
      "anonymous": false,
      "inputs": [
        {
          "indexed": true,
          "name": "owner",
          "type": "address"
        },
        {
          "indexed": true,
          "name": "spender",
          "type": "address"
        },
        {
          "indexed": false,
          "name": "value",
          "type": "uint256"
        }
      ],
      "name": "Approval",
      "type": "event"
    },
    {
      "anonymous": false,
      "inputs": [
        {
          "indexed": true,
          "name": "from",
          "type": "address"
        },
        {
          "indexed": true,
          "name": "to",
          "type": "address"
        },
        {
          "indexed": false,
          "name": "value",
          "type": "uint256"
        }
      ],
      "name": "Transfer",
      "type": "event"
    },
    {
      "constant": false,
      "inputs": [
        {
          "name": "thawTS",
          "type": "uint256"
        }
      ],
      "name": "freeze",
      "outputs": [],
      "payable": false,
      "stateMutability": "nonpayable",
      "type": "function"
    },
    {
      "constant": false,
      "inputs": [
        {
          "name": "_from",
          "type": "address"
        },
        {
          "name": "_to",
          "type": "address"
        },
        {
          "name": "_value",
          "type": "uint256"
        }
      ],
      "name": "transferFrom",
      "outputs": [
        {
          "name": "",
          "type": "bool"
        }
      ],
      "payable": false,
      "stateMutability": "nonpayable",
      "type": "function"
    },
    {
      "constant": false,
      "inputs": [
        {
          "name": "_to",
          "type": "address"
        },
        {
          "name": "_value",
          "type": "uint256"
        }
      ],
      "name": "transfer",
      "outputs": [
        {
          "name": "",
          "type": "bool"
        }
      ],
      "payable": false,
      "stateMutability": "nonpayable",
      "type": "function"
    }
  ],
  "bytecode": "0x608060405234801561001057600080fd5b5033600081815260208181526040808320683635c9adc5dea00000908190556001819055815190815290517fddf252ad1be2c89b69c2b068fc378daa952ba7f163c4a11628f55a4df523b3ef929181900390910190a36107a9806100756000396000f3006080604052600436106100a35763ffffffff7c0100000000000000000000000000000000000000000000000000000000600035041663095ea7b381146100a857806318160ddd146100e057806323b872dd14610107578063661884631461013157806370a0823114610155578063a9059cbb14610176578063d73dd6231461019a578063d7a78db8146101be578063dd62ed3e146101d8578063f39f3763146101ff575b600080fd5b3480156100b457600080fd5b506100cc600160a060020a0360043516602435610220565b604080519115158252519081900360200190f35b3480156100ec57600080fd5b506100f5610286565b60408051918252519081900360200190f35b34801561011357600080fd5b506100cc600160a060020a036004358116906024351660443561028c565b34801561013d57600080fd5b506100cc600160a060020a03600435166024356102c4565b34801561016157600080fd5b506100f5600160a060020a03600435166103b4565b34801561018257600080fd5b506100cc600160a060020a03600435166024356103cf565b3480156101a657600080fd5b506100cc600160a060020a03600435166024356103fc565b3480156101ca57600080fd5b506101d6600435610495565b005b3480156101e457600080fd5b506100f5600160a060020a03600435811690602435166104c3565b34801561020b57600080fd5b506100f5600160a060020a03600435166104ee565b336000818152600260209081526040808320600160a060020a038716808552908352818420869055815186815291519394909390927f8c5be1e5ebec7d5bd14f71427d1e84f3dd0314c0f7b2291e5b200ac8c7c3b925928290030190a350600192915050565b60015490565b600160a060020a0383166000908152600360205260408120544210156102b157600080fd5b6102bc848484610500565b949350505050565b336000908152600260209081526040808320600160a060020a03861684529091528120548083111561031957336000908152600260209081526040808320600160a060020a038816845290915281205561034e565b610329818463ffffffff61067716565b336000908152600260209081526040808320600160a060020a03891684529091529020555b336000818152600260209081526040808320600160a060020a0389168085529083529281902054815190815290519293927f8c5be1e5ebec7d5bd14f71427d1e84f3dd0314c0f7b2291e5b200ac8c7c3b925929181900390910190a35060019392505050565b600160a060020a031660009081526020819052604090205490565b336000908152600360205260408120544210156103eb57600080fd5b6103f58383610689565b9392505050565b336000908152600260209081526040808320600160a060020a0386168452909152812054610430908363ffffffff61076a16565b336000818152600260209081526040808320600160a060020a0389168085529083529281902085905580519485525191937f8c5be1e5ebec7d5bd14f71427d1e84f3dd0314c0f7b2291e5b200ac8c7c3b925929081900390910190a350600192915050565b336000908152600360205260409020544210156104b157600080fd5b33600090815260036020526040902055565b600160a060020a03918216600090815260026020908152604080832093909416825291909152205490565b60036020526000908152604090205481565b6000600160a060020a038316151561051757600080fd5b600160a060020a03841660009081526020819052604090205482111561053c57600080fd5b600160a060020a038416600090815260026020908152604080832033845290915290205482111561056c57600080fd5b600160a060020a038416600090815260208190526040902054610595908363ffffffff61067716565b600160a060020a0380861660009081526020819052604080822093909355908516815220546105ca908363ffffffff61076a16565b600160a060020a0380851660009081526020818152604080832094909455918716815260028252828120338252909152205461060c908363ffffffff61067716565b600160a060020a03808616600081815260026020908152604080832033845282529182902094909455805186815290519287169391927fddf252ad1be2c89b69c2b068fc378daa952ba7f163c4a11628f55a4df523b3ef929181900390910190a35060019392505050565b60008282111561068357fe5b50900390565b6000600160a060020a03831615156106a057600080fd5b336000908152602081905260409020548211156106bc57600080fd5b336000908152602081905260409020546106dc908363ffffffff61067716565b3360009081526020819052604080822092909255600160a060020a0385168152205461070e908363ffffffff61076a16565b600160a060020a038416600081815260208181526040918290209390935580518581529051919233927fddf252ad1be2c89b69c2b068fc378daa952ba7f163c4a11628f55a4df523b3ef9281900390910190a350600192915050565b8181018281101561077757fe5b929150505600a165627a7a72305820ff8daeef83290b8fad52f3c8f19276803a01e05d09bab082092d9a9f20c71adc0029",
  "source": "pragma solidity ^0.4.0;\n\nimport \"zeppelin-solidity/contracts/token/ERC20/StandardToken.sol\";\n\ncontract Token_week3 is StandardToken {\n    constructor() public {\n        balances[msg.sender] = 1000 ether;\n        totalSupply_ = balances[msg.sender];\n        emit Transfer(address(0), msg.sender, totalSupply_);\n    }\n\n    function freeze(uint thawTS) public {\n        require(m_freeze_info[msg.sender] <= now);\n        m_freeze_info[msg.sender] = thawTS;\n    }\n\n    function transferFrom(address _from, address _to, uint256 _value) public returns (bool){\n        require(m_freeze_info[_from] <= now);\n        return super.transferFrom(_from, _to, _value);\n\n    }\n\n    function transfer(address _to, uint256 _value) public returns (bool) {\n        require(m_freeze_info[msg.sender] <= now);\n        return super.transfer(_to, _value);\n    }\n\n    mapping (address => uint) public m_freeze_info;\n}",
  "sourcePath": "/home/eugene/go/src/blockchain/week_03/week3/project/contracts/Token_week3.sol",
  "compiler": {
    "name": "solc",
    "version": "0.4.24+commit.e67f0147.Emscripten.clang"
  },
  "schemaVersion": "2.0.1",
  "updatedAt": "2018-07-24T14:59:35.275Z"
}